:10100000502F0020093D0000053D0000053D000077
:1010100000000000000000000000000000000000D0
:10102000000000000000000000000000754000000B
:101030000000000000000000314100007541000088
:10104000053D0000053D0000053D0000692A000047
:10105000053D0000053D0000053D00001918000099
:10106000053D000029380000053D00001D39000045
:10107000053D00000000000000000000012100000C
:1010800000000000053D0000053D0000053D00009A
:101090002D170000053D0000053D0000053D000046
:1010A000053D0000053D0000053D0000053D000038
:1010B000053D0000053D0000053D000010B5064C53
:1010C0002378002B07D1054B002B02D0044800E009
:1010D00000BF0123237010BDB000002000000000FD
:1010E000CCDB0000084B10B5002B03D007490848A3
:1010F00000E000BF07480368002B00D110BD064B7D
:10110000002BFBD09847F9E700000000B400002056
:10111000CCDB0000CCDB00000000000010B5194A59
:10112000D3698024A4022343D361402482235B003B
:10113000154AD450154B1C78012222431A709A7814
:101140000F242040A2431043987058890422024380
:101150005A815889032211400A0130218843010035
:101160001143598119890A4A0A40C02149010A4399
:101170001A8145221A735A7807218A4304210A43A7
:101180005A7010BD00080040001C0040004400429E
:10119000FFE0FFFF114A137802218B431370110007
:1011A00003220B8C1342FCD10C4B1A891F210840DF
:1011B0008A4310431881197802220A431A701900D1
:1011C00003220B8C1342FCD1044B997901220A4370
:1011D0009A71197E02220A431A767047004400422F
:1011E000024B9879C007C00FC0B27047004400425C
:1011F000014B988C80B270470044004270B584B0B7
:1012000005000E0010222249684605F0A1FAA42329
:10121000EB585B0635D0A423EC58A404A40E21019E
:101220001C4BC91800292FD00B685B0006D5012381
:1012300073730B68DB00DB08336005E00023737316
:101240000B68DB005B0D33600B689B0001D501234D
:1012500033714B689B0201D5022333714B681B032A
:101260001B0F6A46D25C3273B068083105F070FA21
:101270003F21A822AB580C408B431C43AC500020AC
:1012800004E00A20404201E01C20404204B070BD4E
:1012900048CB00007823002070B50400C423C35855
:1012A0009B0200D595E0C423C058C002C00E0001C7
:1012B0004B4BC018002800D18EE04B7B012B07D18F
:1012C0000B68036003688022D2051343036002E0C9
:1012D0000B689B0403600B7B082B08D845680F2222
:1012E00013401A043F4B2B401343436042E00C2B46
:1012F00007D842683B4B13409022120313434360CC
:1013000038E0102B07D84268364B1340A022120356
:10131000134343602EE0142B07D84268314B13402F
:10132000B02212031343436024E0182B07D842680D
:101330002C4B1340C0221203134343601AE0202BAE
:1013400007D84268274B1340D0221203134343604F
:1013500010E0302B07D84268224B1340E0221203E2
:101360001343436006E0402B04D84368F022120385
:10137000134343600B79023B012B12D84368802250
:101380009203134343600B79032B05D143688022FA
:101390005203134343600CE04268134B1340436015
:1013A00007E04268114B1340436042680E4B134004
:1013B000436008300A7B896805F0CAF9C423E35802
:1013C000DB02DB0E01229A401300D022A350002042
:1013D00004E01C20404201E01C20404270BDC04699
:1013E000B8230020FFFFF0FFFFFFEFFFFFFFDFFF4D
:1013F00030B5002922D19A4204D9800000221D4B29
:10140000C25034E01B4C80000559520551091A4A5C
:101410002A400A43025101595B055A0DCB0ADB02EF
:101420001343035103599B009B0803510259134B6B
:101430001340802212051343035118E0012916D1ED
:101440009A4204D9C00000220D4BC2500FE00C4953
:10145000C00042504258D200D2088024A405224342
:1014600042500818436043689B009B08436000207B
:1014700030BDC046FC000020FFFF00F8FFFFFFC7A3
:10148000CC00002083690222934383618369013A7F
:101490009343836183691A42FCD1426D0123134354
:1014A0004365704782690123134383610122836985
:1014B0001A42FCD08269022313438361426D0123E7
:1014C0009A434265026D13430365704770B504008B
:1014D0007D2900D1A3E0FA2911D0FA235B009942BB
:1014E0000FD0F533FF3399420DD0FA23DB00994238
:1014F0000BD0FA231B010525994207D00AE00125EC
:1015000004E0022502E0032500E004257D2A00D145
:1015100080E004E000207D2A00D190E00625FA2A30
:1015200000D180E0FA235B009A427ED0F533FF338E
:101530009A427CD0FA23DB009A427AD0FA231B012C
:101540009A4278D000207AE0002500262000FFF79C
:10155000A9FF052D5AD8AD00394B5B599F46042190
:101560000B22042312E004210B2202230EE00421AB
:101570000B2201230AE002210522012306E00121BA
:101580000222012302E004210B220823013B1B0459
:101590002C480340013A1206120C13434A1E7F21C5
:1015A0000A401343E361052E32D8B600264B9B59FF
:1015B0009F4604230B22042112E004230B22022164
:1015C0000EE004230B2201210AE00223052201215F
:1015D00006E001230222012102E004230B2208215C
:1015E00001390904F82040030140013A1202F820B1
:1015F000400102401143013B1A01FF2313400B43FA
:10160000E3602000FFF73EFF012018E0002016E015
:10161000002014E00020062D11D0002696E77D2A38
:1016200092D000257BE7012606E0022604E003268F
:1016300002E0042600E005260020062D86D170BDBC
:1016400018CB00000000FF0130CB00002B4B98426C
:1016500052D12B4A1369802149000B431361BE39D3
:10166000E823284AD150254A9169E73B0B4393610F
:10167000110001228B691A42FCD0204B9969022289
:101680000A439A619A69C02189000A439A6100213C
:1016900099601D4ADA611D4ADA601D4A1204120C73
:1016A0001C480243A0201A50BC2299500C32995079
:1016B000194A1204120C802189040A43C0215A508D
:1016C00016490904090C802080020143F022995038
:1016D0002821703A9950124A1204120C02435C31CC
:1016E0005A50104A1204120C8021C9020A43882160
:1016F0005A500D49902299507047C046001C004234
:1017000000080040001C0040030A0500330A0000E6
:101710007823002000000480B8230020EC00002083
:10172000FC000020CC000020FFFFFF1F10B5164B6F
:101730009B7ADB0702D50122134B9A72124B9B7ADC
:101740009B0702D50222104B9A720F4B9B7A9B0685
:1017500018D520220C4B9A721A0013695B06FCD430
:10176000094BD869062103F00FFF084B1860064AA1
:1017700013691B06FCD4044B186A062103F004FF0E
:10178000034B186010BDC04600300042D823002033
:10179000DC2300208422184B5A60833A174B1A71BD
:1017A000174B184A1A8202221A7500225A750732FC
:1017B0009A751A009369002BFCD1114AD368DB0794
:1017C000FCD50F4A138A802109010B431382D36889
:1017D000DB06FCD50C4A0D4B1A6219000C4A4B680B
:1017E0001342FCD10B4A094B9A621900084A4B6814
:1017F0001342FCD17047C046004000410008004041
:10180000001000400643000006010100001C0040DB
:10181000FD07000000010100F0B55F4656464D4649
:101820004446F0B4174B3F229C5CE2B293465E6A9A
:10183000002301200F2291461249303290460F3288
:10184000944607274025DAB204009C4026420BD07C
:101850000D4CE0544C46224044460A5562468F5493
:101860004A5D0224A2434A550133032BEBD13C339A
:10187000044A5946D1543CBC90469946A246AB46D0
:10188000F0BDC04600600041E0230020114A13690A
:1018900080210B431361104B1A88022082431A8067
:1018A0000122013818800D4858630D4898630D488F
:1018B00018800D4B1A705A709A700C4A1160C12131
:1018C000890053581B021B0A8020C0050343535054
:1018D0007047C04600080040006000412001002021
:1018E00050010020020F0000E023002000E100E092
:1018F00070B502285ED80F2202402F4B3F241A55A4
:1019000001341A5D0225AA431A5501221A551C6991
:10191000824094431C61CA7A002A06D10B7B5B018A
:1019200060321340244A53640DE00B7B5B0160245A
:1019300023401202FC24A4012240134380221204FB
:1019400013431D4A536407244D231B4AD4541B4C94
:101950000023E3600B8963808B7A1B02C022920014
:1019600013400A68A2604A7B002A02D10132134365
:1019700008E0124DAC680A898E7AB2401219AA604A
:101980000F4A13430D4A4C6854608A7B002A09D0E1
:101990000A4D6C680A89897A8A4012196A60802225
:1019A000D200134305490B800001064B1818102282
:1019B00004F0CEFE70BDC046006000411001002062
:1019C000010800002001002010B5022816D80F23BE
:1019D00003403F220A498B540A4B1B5C002B04D165
:1019E00001328B5C0224A3438B540022054B1A5412
:1019F00003494032885C022303438B5410BDC04628
:101A000000600041E0230020022809D80F2318407D
:101A1000044B3F22985440215A5C022082435A547E
:101A20007047C0460060004103000120022B02D82D
:101A3000014AD05CC0B27047E0230020024A137D07
:101A4000DB07FCD57047C0460040004110B50400DC
:101A5000FFF7F4FF054B2022FF321A836408DC6194
:101A6000034A1A80FFF7EAFF10BDC046004000415C
:101A70001AA5FFFFF0B55F464E464546E0B40400A8
:101A80000D001700174A536880218B435360002FC5
:101A900022D09146144B1B889B46144B98463E001F
:101AA000102F00D91026BF1B4B465A461A80FFF74D
:101AB000C5FF721E002E08D00023E958E150043300
:101AC000013AFAD2B600A419AD194B4642461A8023
:101AD000FFF7B4FF002FE2D11CBC90469946A34605
:101AE000F0BDC0460040004158CB00001CA5FFFFE0
:101AF0007047C0461F2918D8002A08D001238B4000
:101B0000C0018222D2059446604483600DE0012327
:101B10008B40C0018222D205944660444360411844
:101B200040310A78022313430B70704730B51F29E8
:101B300029D8082A09D9C0010818134B9C466044CB
:101B400003780122934303701DE0C301CB180E4CB0
:101B5000A44663441D7801242C431C70CB070BD58D
:101B60004908C0010818094B9C46604403781201DB
:101B70001A43D2B2027006E04908C0010818034BAC
:101B80009C466044027030BD40000041300000417E
:101B900010B51F292DD8012A0ED0002A02D0022A02
:101BA00019D026E0C0010818124B9C466044037807
:101BB0000422934303701CE0C0018223DB059C4692
:101BC0006044431840331C78042222431A700123D6
:101BD0008B4083610DE0C0018223DB059C4660449D
:101BE000431840331C78042222431A7001238B408F
:101BF000436110BD4000004101238B40C00182229F
:101C0000D2059446604483617047C04601238B40EF
:101C1000C0018222D2059446604443617047C046A9
:101C200001238B40C0018222D20594466044C361E7
:101C30007047C04610B50400314B98420BD1314A71
:101C4000D369802080000343D361C138FF38F0237B
:101C50002D4AD0501AE02D4B98420AD1294AD36917
:101C60008020C0000343D3614020F023264AD05097
:101C70000CE0274B984241D1224AD36980200001D1
:101C80000343D3614020F4231F4AD050214803F07E
:101C90007BFC214B186080235B0298420AD9002309
:101CA000802252020133DBB240089042FAD81A4A2D
:101CB000106000E00023012222600121A26811428D
:101CC000FCD1012222710421A2681142FCD11B0225
:101CD000E022D200134023600223E3634022A36882
:101CE0001A42FCD101382064002363632268023366
:101CF000134323600322A3681A42FCD110BDC046DF
:101D00000024004200080040001C0040002800425F
:101D1000002C0042006CDC028001002070B5050040
:101D20000C00064B1B6853431800FA21890003F08E
:101D30002BFC1034A4002C19606070BD80010020C1
:101D400070B5194A5369802149010B435361402101
:101D50009423164AD1500122154B1A7019008B6832
:101D60001A42FCD1134B1B681902FC2292010A4053
:101D70001905890E0A430E4C22620F4A1568280580
:101D8000F022120410401B0B184304F0FFFB03F079
:101D9000E1FCA0612D012D0AE5611023A3700E3B2B
:101DA0002370013B637070BD00080040001C0040C0
:101DB00000300040306080003460800010B50C4B73
:101DC000DB681B02180A002B0CDA80235B04181A4C
:101DD00004F0DCFB80231B069C466044054903F0AD
:101DE00007FF04E004F0D2FB024903F001FF10BD3D
:101DF000003000400000C842F8B5040006A805788D
:101E0000314884420CD131484027CC2687510337D2
:101E1000043E87512E4EF76902203843F0612EE0D0
:101E20002C4884420CD129484027D02687510337BB
:101E3000083E8751264EF76904203843F0611EE0C2
:101E4000254884420CD121484027D42687510337A6
:101E50000C3E87511E4EF76908203843F0610EE0B2
:101E60001E4884422FD119484027D826875103376E
:101E7000103E8751164EF76910203843F061120466
:101E8000C026B6023240164802430905C02080032E
:101E900001400A4322606660002D03D06168402241
:101EA0000A4362601B0158420E4B9C466044010C81
:101EB00000040C4A002303F02DFC80B2A0812268AC
:101EC000022313432360F8BD00040042001C0040BD
:101ED0000008004000080042000C004200100042D0
:101EE00004000040006CDC0270B5040003680225A9
:101EF000AB43036009014842074B9C466044010C18
:101F00000004054A002303F005FC80B2A081236889
:101F10001D43256070BDC046006CDC0289B201859E
:101F2000037E9B07FCD570470004F0231B03184079
:101F300004231843014BD8617047C0460018004085
:101F40000B4A5369802149000B435361094A1378B6
:101F5000FC398B43137011000E228B681A42FCD19E
:101F600004494B780F2293430B3A13434B7070474D
:101F70000008004000200040054A117802230B436E
:101F8000137011000E228B681A42FCD17047C046B4
:101F90000020004010B50D4B1B78012B0AD0002B00
:101FA00004D0022B09D0032B0AD00CE001F00AFC6C
:101FB000012009E001F0B8FD06E000F099FA03E025
:101FC00000F0B0F900E0002010BDC046F42300206E
:101FD00010B504000D4B1B78012B0BD0002B04D047
:101FE000022B0AD0032B0BD00DE000F0D9FB2060B0
:101FF000012009E001F0CCFD06E000F0ABFA03E0BF
:1020000000F008FA00E0002010BDC046F4230020D4
:1020100010B50A4B1B78012B08D0002B02D0022BE5
:1020200007D009E0C0B200F0A3FE06E001F0DAFD3F
:1020300003E000F0B3FA00E0002010BDF42300201C
:1020400010B50A4B1B78012B08D0002B02D0022BB5
:1020500007D009E0C0B200F05BFE06E001F0EAFD47
:1020600003E000F0B5FA00E0002010BDF4230020EA
:1020700010B504000020042C11D801F097FB084B88
:102080001C70002C02D0042C04D007E001F082FB6D
:10209000012004E001F00CFE012000E0012010BD51
:1020A000F423002010B58000054B1818C078FFF706
:1020B00071F8FFF795F80028FBD0FFF799F810BDED
:1020C0005CCB0000F8B50D4C27000C3725786678FE
:1020D000002231002800FFF70DFDA2783100280012
:1020E000FFF724FD0434BC42F0D10320FFF71CFFAE
:1020F00000210020FFF712F8F8BDC0465CCB0000BD
:1021000030B597B000231593144B1C6DE30719D518
:1021100001AD05AB039329001048FFF76FF8104895
:10212000019B03606A7B2523C2542A7B013BC25476
:102130000430A96804F00CFB0A4B186815AA0221A8
:1021400001F004FF054B1C65159B002B03D080227A
:102150005205054B1A6017B030BDC046001C004246
:10216000FC230020E823002004ED00E070B584B0DB
:1021700008AC257809AC2478009000206E463071B8
:1021800002913273002B02D00123737301E000230C
:102190007373002D02D002236A461371002C02D003
:1021A00003236A46137169460348FFF775F84342F3
:1021B0005841C0B204B070BD001C004210B582B0DE
:1021C00004000A4B18680123009300230122022116
:1021D00001F0F0FD0023820705D5282204492000E4
:1021E00004F0B6FA0123180002B010BDE823002065
:1021F000FC23002010B50A0001000248FFF766F931
:1022000010BDC046001C004210B5144C2000FFF762
:102210001DFA134B8022120280215A50BFF34F8FB8
:10222000BFF36F8F0131FF315A501A600123E3650C
:1022300006226939FF390020FFF778FC06221921B0
:102240000020FFF773FC074B002200210020FFF75E
:10225000CFF82000FFF716F910BDC046001C004261
:1022600000E100E0FF070000F0B55F464E4645463E
:10227000E0B498B004901400059320AB1F8821AB04
:102280001B789B4610AD280004F062FA244A1378AC
:10229000591C11701F2213405F3A13432B55013410
:1022A000E3B299460323984601260196009633002F
:1022B0004A4610A90498FFF759FF041E28D05B4630
:1022C000002B25D002F0ECFB5844050015E006A8D1
:1022D000FFF774FF041E0DD0069B03931B0A9BB2ED
:1022E000BB4207D1242306AAD25C07A9059804F0B3
:1022F0002FFA0DE0300002F0D5FC02F0D1FB854250
:10230000E5D84346013BDBB29846002BCDD10024F3
:10231000200018B01CBC90469946A346F0BDC046AC
:10232000A4010020F0B585B0041C05222F4902A8A5
:1023300004F00EFA2E49201C03F0C4F9002807D13E
:102340002C49201C03F0D2F9002802D0294C00E0CF
:10235000274C2949201C03F015FE284903F048FCAE
:10236000274903F00FFE04F0A7F804B2052200216C
:10237000244804F0F6F92449A3B21B0ACA5C1202ED
:10238000E4B20B5D9A1892B2052301241D4D072774
:10239000144207D0D9083800184026008640685CEF
:1023A000304368540133DBB25208152BF0D10023BF
:1023B0001449585C02AA9A5C02435A540133052B13
:1023C000F7D1104B581D10491A788A5C1A700133E6
:1023D0008342F9D10023019300930C4B0522094954
:1023E0000B48FFF741FF05B0F0BDC04668CB0000C9
:1023F00000002AC300002A43F90F4940000034437B
:1024000000007A44A801002070CB00008401002065
:102410007F5C561430B583B00500114900230B7062
:102420000A3301930F4B00930F4B01220F48FFF724
:102430001BFF041E11D00C4BD87800029B78181893
:1024400000B204F05BF80A4903F09CFD094903F06F
:10245000CFFB094903F0CCFB2860200003B030BD5E
:10246000A801002055560000840100207F08521466
:1024700000003443F90F494000007A44F0B591B0B0
:102480000390049105921C000325002601960096F6
:102490003300049A0399FC208000FFF767FE071EB3
:1024A00023D002F0FDFA271802F0FAFA874217D972
:1024B00006A8FFF783FE071E0FD0039B197804AB15
:1024C0001A7B80230B439A4207D1242306AAD25CAD
:1024D00007A9059804F03CF907E0012002F0E2FBAF
:1024E0006B1EDDB2002DD1D10027380011B0F0BD38
:1024F00010B5041C124903F0E5F8002807D1114972
:10250000201C03F0F3F8002802D00E4C00E00C4C25
:102510008A21C905201C03F035FD0B4903F068FB37
:1025200003F0CAFF03B20948012202701A12427076
:1025300083700A23064A0321FFF7A0FF10BDC0469F
:1025400000002AC300002A4300003443E8010020B1
:10255000C801002070B505000D4802230370083340
:102560000C4A0121FFF78AFF041E0FD0094B58784F
:1025700000029B78181800B203F0C0FF064903F070
:1025800001FDE821890503F0FDFC2860200070BDF5
:10259000E8010020C80100200000344370B50C00A1
:1025A0000023FF280ED8084D0B332B706870013BB9
:1025B000064A02212800FFF761FF031E02D0034AEA
:1025C00092782270180070BDE8010020C801002038
:1025D00010B50123FF280BD8064C0B332370607015
:1025E000A170023B044A03212000FFF747FF0300CC
:1025F000180010BDE8010020C801002010B504003B
:1026000004F08BFFC1B2200001F052F910BDC046AA
:10261000F0B557464E464546E0B4A0B001F05CF92F
:102620004D4B98461D000023994601214942012047
:1026300002F04EFD43461A780D2A05D8474BD34089
:10264000DB070ED44B4600E04B46444801210133E2
:102650009BB2EA5C0D2AFAD80400D4402142F6D09D
:1026600000E04B461A1CFF2B00D9FF2292B23A4BD6
:10267000D218494611701B78002B69D0384A11686E
:10268000CB185B781B070AD5334C0822013423781A
:10269000002B5ED0CB185B781A42F7D151E02E4C5C
:1026A0004B46082601339BB2E0180278002A03D07B
:1026B0008A1852781642F5D04B460370200001F07C
:1026C00007FB04222749200004F02EFF00282FD109
:1026D000254C8C239B00E618244B9A462700237C2C
:1026E000DB0721D5637C002B03D053461B78002BDE
:1026F0001AD03968684604F008FF684604F00DFFF8
:10270000684404221A4904F023F8F968684604F082
:10271000EFFE684604F001FF68440222154904F008
:1027200017F86846FFF76AFF1434B442D6D17CE745
:1027300001226946200000F043FD6846FFF75EFF76
:1027400073E72378CB185B7820001B07B4D4A7E786
:10275000014C2000B0E7C0462424002001240000E2
:102760000800002078CC0000C4CF00000802002040
:1027700070CC000074CC000010B500210120FFF7E0
:1027800091FC03F003FF054903F0FCFB011C03F07F
:10279000B9F8E621890503F0F5FB10BD6F128340FF
:1027A00010B5FFF7E9FF074903F022FAFE2189057A
:1027B00003F0FCFC044903F0E5FBFC21890503F070
:1027C000E1FB10BD000020400000B44210B5002124
:1027D0000020FFF767FC03F0D9FE064903F0D2FBA7
:1027E000054B196803F0CEFBE621890503F0CAFB0F
:1027F00010BDC0466F128340F023002010B50128A1
:1028000021D801000220FFF74DFC124B00229B5EF5
:1028100098421ADDC01A80B203F0B8FE0E4903F0E8
:10282000B1FBE621890503F0ADFB0C4903F0E0F9AB
:102830000B4903F0DDF9041C002102F043FF0028DE
:1028400005D0002004E0002002E0002000E0201C71
:1028500010BDC046F62300206F1283400AD7A33C68
:102860000000484230B5531E9BB2002A0ED00A0029
:102870000133C918064D0402A4B2000A1378584067
:102880004000405B604001328A42F4D130BDC04616
:1028900080CC000030B583B0084CFC2221000848F1
:1028A000FFF7E0FF05006B46991D0880201F0222FC
:1028B00003F04EFF280003B030BDC046282600209C
:1028C000FFFF000010B5064C02222100054803F06E
:1028D0003FFFA11C0422044803F03AFF10BDC0468C
:1028E00024260020F6230020F023002070B50D4B95
:1028F000984204D00C4B984213D1012300E00023EE
:102900000A495D00EA189200545C094AA418EB18C1
:102910009B00CB185A780100200003F019FFFFF745
:10292000B9FF70BDF6230020F023002080CE000008
:102930002426002010B5002803D001280AD106491A
:1029400001E08021C90380225200044803F000FF07
:10295000FFF7B8FF10BDC04600014000242600204C
:10296000F8B5002803D0012817D10C4D01E08025CF
:10297000ED03FFF78FFF2B8883420ED02800FFF76F
:1029800065F80024064F80267600E11928191022E8
:10299000FFF770F84034B442F7D1F8BD00014000B1
:1029A0002426002010B50020FFF7DAFF0120FFF7F2
:1029B000D7FF10BDF0B583B00020FFF7BBFF244C5C
:1029C000227863781B0213431D00271D214EFC2231
:1029D00039003000FFF746FF01900120FFF7AAFF02
:1029E0002378647824021C43FC2239003000FFF76E
:1029F00039FF84421CD0164C80225200FF21200057
:102A000003F0AFFE0022144B1A80144D2900083148
:102A10000232200003F09CFE114A124B1A60A01CE7
:102A200029001431042203F093FEFFF7BBFF0CE0F2
:102A3000019B9D4206D00120FFF77CFF0020FFF79D
:102A40008FFF02E00020FFF775FF03B0F0BDC04626
:102A500024260020FFFF0000F623002080CE000087
:102A6000A470F540F02300200222014B5A61704708
:102A70000028004010B500210020FFF7C7F8012210
:102A800000210020FFF736F8092200210020FFF77F
:102A90004DF80121042000F00FFB10BD10B50121FD
:102AA0000020FFF7B3F8002201210020FFF722F8F1
:102AB000012201210020FFF76BF8002201210020F4
:102AC000FFF734F80021042000F0F6FA01220E4B43
:102AD0001A6019008B681A42FCD101220A4B1A7144
:102AE000190003328B681A42FCD1074B074A1A605F
:102AF000074A1A62196802220A431A60190003225F
:102B00008B681A42FCD110BD002C0042000100036A
:102B100028800300F0B55F4656464D464446F0B463
:102B200085B082460C0001910322002103A803F026
:102B300018FE002C03D100226D4B1A7002E0012216
:102B40006B4B1A70FFF796FF00210020FFF75EF82D
:102B50000A2002F0A7F8674B1A00A0320121196081
:102B6000596008339A42FAD16349002308C291425E
:102B7000FCD14D25002399469B465E4B9846012487
:102B80009C4651464B466A46D370D3785E46012B2D
:102B900004D84A468E5C5B4673409B462B00183B2C
:102BA000DBB228001938C0B28A469A1ED2B2D91EAA
:102BB000C9B289004746CC51344206D092004D49F3
:102BC000545082000027575005E0920061460027CC
:102BD0005750820054507608F6B20333DBB203300C
:102BE000C0B29D42E1D1514601239A46D1441835E5
:102BF000EDB2952DC6D13F4B0122F42149005A5028
:102C000000200431585004315A503C4AD37EDBB284
:102C10001375FEF7D9FE01F043FF1E30050003E0F7
:102C200001F03EFF85425BD30020FEF7FDFE041E4F
:102C3000F6D02F4B1B78012B52D1FFF72FFF01202D
:102C4000FEF7C2FE1E2002F02DF82D4A1368022165
:102C50008B431360110003228B681A42FCD10120C0
:102C6000FEF7D2FE00239C461433264FC025AD004C
:102C70008022524290466246A446140019E0400861
:102C80009A00D25920495118A94203D8424610430C
:102C9000C0B204E01D4989464A44AA421DD8013306
:102CA000DBB2B342EBD103ABE05401343300032C6D
:102CB00005D003AAA05C1E000836F6B2DFE7644622
:102CC00003AA1178537892784B409A4207D1022296
:102CD00003A9019803F03CFD02E0002400E0002479
:102CE000200005B03CBC90469946A246AB46F0BDDC
:102CF0002527002028270020F02700200038004248
:102D0000002C00422C29002000EFFFFF00DCFFFF19
:102D1000F0B583B006000F0000236A46138043B26B
:102D2000002B1FDB01AA80235B4203431370517009
:102D30000324694601A8FFF7EDFE050000F06CFDD5
:102D400000F028FD002D07D06B461B78B34203D15D
:102D50006B465B78BB4207D0013CE4B2002CE8D163
:102D6000002002E0012000E0012003B0F0BDC046D9
:102D700030B583B00D0001AB00221A8069460A808D
:102D8000187000240134E4B2694601A8FFF7C2FEBE
:102D9000002808D06B461A791B789A4203D16B46FB
:102DA0005B782B7001E0032CECD100F035FD00F0D6
:102DB000F1FC00200223A3424041C0B203B030BD69
:102DC00070B584B0524AD3698021C9010B43D361E5
:102DD0004021FC234F4AD1504F4A1168FB3B0B4323
:102DE0001360110001220B691A42FCD14A4B4B4A75
:102DF0001A6000225A710132FF32DA806A3ADA76BA
:102E00001968943A0A431A60190002220B691A429F
:102E1000FCD102266B469E7221236A46D372404B38
:102E20000093404B019301259573002454737E2336
:102E30001381147369460020FEF75AFD6B469E729B
:102E40001A236A46D372384B0193384B009394731C
:102E5000557380231381147369460120FEF748FDE2
:102E6000402188232B4AD150294A53698021C90027
:102E70000B4353612E4B1B789B0707D401222C4B2D
:102E80001A7019004B681A42FCD109E0284A1378DD
:102E900002218B431370110002224B681A42FCD1AD
:102EA000234B5A78D2B25A70996802221143996022
:102EB000996911439961196B0A431A635A6B5A63F2
:102EC000D96940220A43DA611A6A1A621978022221
:102ED0000A431A70190002224B681A42FCD10C4BAB
:102EE000DA69802109010A43DA610A4A4021F420A3
:102EF00011505C381150DA693F390A43DA61842392
:102F0000DB050C4A1A62D022995004B070BDC0464D
:102F100000080040001C004000380042040500008A
:102F20001C00004128270020482C00422C290020AA
:102F3000002800400F8E000010B50024012001F091
:102F4000B1FE01F0ADFD8442F8D8FA239B009C4607
:102F50006444012000F0F6F8F0E7C04600B583B005
:102F600000F01CFF1E4B1860FEF7C2FDFEF7E8FEE6
:102F7000FEF78CFC00F058F800F04EFC00F00AFC64
:102F8000002000F01FFCFFF71BFF00F08FFDFFF794
:102F900099F8FFF739F90121002000F08DF801219F
:102FA000022000F089F8FFF705FD002301930233AA
:102FB00000930023C8220B490B4801F05FFC0B4B28
:102FC0000193032300930023C822520008490948B3
:102FD00001F054FC002001F0CBFE03B000BDC04660
:102FE000E823002098CE0000392F0000E4230020C1
:102FF000A4CE00001126000000B583B0FEF7CAFB86
:1030000000230193053300930023C8220449054897
:1030100001F034FC01F00AFD002003B000BDC04601
:10302000B0CE00005D2F000010B502210020FEF799
:10303000EDFD012202210020FEF75CFD09220221A4
:103040000020FEF773FD03210020FEF7DFFD0122C3
:1030500003210020FEF74EFD092203210020FEF788
:1030600065FD10210020FEF7D1FD01221021002076
:10307000FEF740FD092210210020FEF757FD1B211D
:103080000020FEF7C3FD01221B210020FEF732FDC8
:1030900009221B210020FEF749FD12210020FEF726
:1030A000B5FD012212210020FEF724FD0922122184
:1030B0000020FEF73BFD10BD10B504283ED880006F
:1030C0001F4B1B589F46002904D102310020FEF7F8
:1030D0009DFD33E002210020FEF78EFD2EE0002949
:1030E00004D103310020FEF791FD27E003210020E9
:1030F000FEF782FD22E0002904D110310020FEF706
:1031000085FD1BE010210020FEF776FD16E000296A
:1031100004D11B310020FEF779FD0FE01B210020B8
:10312000FEF76AFD0AE0002904D112310020FEF703
:103130006DFD03E012210020FEF75EFD10BDC046CC
:10314000BCCE000010B504281BD880000D4B1B58C6
:103150009F4602210020FEF763FD12E003210020BC
:10316000FEF75EFD0DE010210020FEF759FD08E09E
:103170001B210020FEF754FD03E012210020FEF782
:103180004FFD10BDD0CE0000F8B505000E000800C0
:1031900000F09EFD00242F68380004F0BEF9020004
:1031A0003900300004F0C0F9002806D00134E4B240
:1031B00014351C2CEFD11C2000E02000F8BDC046C7
:1031C000F0B587B00C00170001900100D648FFF75A
:1031D000DBFF050006001B2800D97FE283001B18D7
:1031E0009B00D14AD3181B7C3B4200D178E283007C
:1031F0001B189B00985804F090F90700019804F000
:103200008CF9FAB283B29A4205D2FF203840019B72
:103210009C4660445CE20004000C019B9C466044B8
:1032200056E2C24B1A68AB005D19AD00BE4B5B198C
:103230009968200004F010F941E2BD4A53781278F1
:10324000A9004D19AD00B84949198968200004F05A
:1032500003F934E2AB005D19AD00B34B5B199D6817
:1032600000F04EFD02002900200004F0F5F826E2EF
:10327000AB005D19AD00AC4B5B199D680020FFF7FA
:10328000BDFA03F0C1F902000B002900200004F090
:10329000E3F814E2A74B186803F0B6F906000F0034
:1032A000AB005D19AD00A04B5B19996832003B0083
:1032B000200004F0D1F802E202A8FEF789FE02988D
:1032C00003F0A2F906000F00AB005D19AD00964BAC
:1032D0005B19996832003B00200004F0BDF8EEE174
:1032E000FEF76CFD061C0290002102F0EBF90028AD
:1032F00000D0F7E1301C03F087F906000F00AB00A7
:103300005D19AD00884B5B19996832003B002000C5
:1033100004F0A2F8D3E1AB005D19AD00824B5B195C
:103320009D68FFF753FA03F06FF902000B002900C4
:10333000200004F091F8C2E1AB005D19AD007A4BBA
:103340005B199D68FFF718FA03F05EF902000B00A5
:103350002900200004F080F8B1E1AB005D19AD0058
:10336000714B5B19596804AB05AA04F097F8431E2A
:10337000012B00D9B8E1704B1B78012B07D0002B33
:1033800000D1B3E1022B07D0032B15D097E10598AC
:1033900000F01AFB6949DCE16949012800D9D8E14C
:1033A000059B049319001800FEF724FF63490028C9
:1033B00000D0CEE16249CCE1012801D1059B049304
:1033C00004990598FEF716FF5C49002800D0C0E17B
:1033D0005B49BEE1AB005D19AD00534B5B19596809
:1033E00005AA04F05BF8012800D081E1059BD8B262
:1033F000FEF73EFE002800D17CE15049A9E1AB0078
:103400005D19AD00484B5B19596802AA04F046F8F3
:10341000012800D070E10298FEF7BCFD002800D121
:103420006CE1464995E100210220FEF73BFE059044
:10343000444B18801800FFF759FAFFF7B3FA3F49D9
:1034400087E1AB005D19AD00374B5B19596802AAE3
:1034500004F024F8012800D052E1029E3A49301CC1
:1034600002F030F9002800D04CE1FFF7AFF9011C61
:10347000364D301C02F0BCFB296802F083FD286049
:103480002800FFF733FAFFF78DFA2C4961E1AB0012
:103490005B199B00244AD318596805AA03F0FEFF64
:1034A000012800D030E1059B98B202ABD91DFEF790
:1034B000AFFD002800D129E102ABDA7914235D4386
:1034C000194B5D19A968200003F0C6FFF7E0AB00B7
:1034D0005D19AD00144B5B19596804AB05AA03F0E4
:1034E000DDFF022800D013E1049BD9B2059B98B2FE
:1034F000FEF7A6FD002800D10CE1104929E1AB0040
:103500005D19AD00084B5B19596805AA03F0C6FFA9
:10351000012800D000E100210020FFF7CDFD0021AF
:103520000120FFF7C9FDCAE0C4CF00000000002061
:10353000D4D60000F8230020F423002098D2000005
:103540006CD20000F6230020CDCCCC3DF02300202F
:10355000AB005B199B00854AD318596805AA03F094
:103560009DFF012800D0D9E00598022800D9D7E0B6
:10357000AB005D19AD007D4B5B199D68C0B20021A9
:10358000FEF790FD02002900200003F065FF96E0A1
:10359000AB005D19AD00754B5B19596805AA03F0C6
:1035A0007DFF012800D0BDE0059B002B05D1012146
:1035B0000130FFF781FD6E49CBE000210220FFF7CB
:1035C0007BFD6B49C5E0AB005D19AD00674B5B1936
:1035D000596804AB05AA03F061FF022800D0A3E0FC
:1035E0000598042800D9A1E0049B002B05D1C0B2A6
:1035F0000021FFF761FD5E49ABE0C0B20121FFF79A
:103600005BFD5B49A5E0AB005D19AD00574B5B1955
:10361000596805AA03F042FF012800D088E04EE077
:10362000AB005D19AD00514B5B19596804AB05AA9D
:1036300003F034FF02287DD141E0AB005D19AD00FD
:103640004A4B5B19596804AB05AA03F027FF02280F
:1036500072D134E0AB005D19AD00444B5B19596881
:1036600005AA03F01BFF012868D1424B059A9A4234
:1036700066D041496DE0AB005D19AD003B4B5B1975
:10368000596805AA03F00AFF01285BD1059801F0EB
:1036900009FB37495DE0AB005D19AD00334B5B19A9
:1036A000596805AA03F0FAFE01284DD1314B059A5D
:1036B0009A424BD1FEF744FCFEF75EFCFEE7200089
:1036C00003F02BFF201802222C4903F041F84BE0B5
:1036D0001B2EF4D8AB002A4AD3589F46294938E01C
:1036E000284936E0284934E0284932E0284930E0CA
:1036F00026492EE025492CE024492AE0224928E0E9
:10370000224926E0214924E0204922E01E4920E008
:103710001E491EE01C491CE01C491AE01B4918E028
:103720001A4916E0194914E0184912E0174910E047
:1037300016490EE015490CE014490AE0134908E067
:103740000B4906E0114904E0104902E00F4900E08E
:103750000749200003F0D9FE200003F0DEFE201808
:103760000222064902F0F4FF07B0F0BDC4CF00000A
:1037700098D20000D204000094D6000074CC00005F
:10378000E4CE0000E0D30000B0D200006CD2000014
:10379000D0D5000010B5042200210020FEF7C6F9A4
:1037A00001210420FFF788FC10BDC04610B5092296
:1037B00000210020FEF7BAF900210420FFF77CFC6D
:1037C00010BDC04610B50F4902F09CF801F0C2FFD1
:1037D000C343DB1718405A2800DD5A20FA239B0008
:1037E00058435A2101F0D0FE074B5843074B9C46E3
:1037F0006044074901F0C8FE82B200210548FEF787
:103800008DFA10BD00003442400D030000C2EB0BE6
:1038100040420F00002C004210B5C8210148FEF7BD
:1038200009FA10BD002C004200B583B000230193BB
:103830001A4B1B7E5B072ED5184B5A8B37231A4227
:1038400003D07F22154B5A8325E0144B1A8D7F231A
:1038500013400A2B1FD0124801784A1CD2B20270C2
:10386000104843541B2B03D100220D4B1A7012E059
:103870000D2B10D100230B498B54094A13700A4BAE
:10388000186801A901F05AFC019B002B03D080228B
:103890005205064B1A6003B000BDC046000400424A
:1038A0002C2B002024240020E423002004ED00E041
:1038B00070B54B1EDBB200290AD004000133C518D5
:1038C000044E21783000FEF729FB0134AC42F8D1D8
:1038D00070BDC0460004004210B582B00D4C0023FC
:1038E0000093E1235B02002201212000FEF784FA0D
:1038F000032204210020FEF719F9032205210020EC
:10390000FEF714F90423A37580229200024B1A607B
:1039100002B010BD0004004200E100E010B582B02A
:1039200000230193214B1B7E5B073DD51F4B5A8B18
:1039300037231A4203D07F221C4B5A8334E01B4B9F
:103940001B8DD8B21A4B591D5A781A7001338B420D
:10395000FAD1174B58715B78164A12789A4201D007
:103960001F2B21D1124C042221001348FEF77AFFAD
:10397000030ADBB2227993420FD10D4B5B79C0B2BF
:1039800083420AD104220A490C4802F0E1FE0C4BA2
:10399000186801AA012100F0D9FA019B002B03D07D
:1039A00080225205074B1A6002B010BD000C004285
:1039B0000C020020362B0020FFFF0000302B0020DF
:1039C000E823002004ED00E010B501000148FEF7F7
:1039D0008BFA10BD000C004270B506000C00114AB5
:1039E0005168114B0B4053600A210020FEF704F987
:1039F000631EDBB2002C0AD034000133F518094EE7
:103A000021783000FEF78AFA0134AC42F8D10A215D
:103A10000020FEF7FBF8034A5368802189020B431C
:103A2000536070BD000C0042FFFFFDFFF0B557462C
:103A30004E46C0B483B005008A4617009946032459
:103A4000174E042229001748FEF70CFF030A2B71BA
:103A5000687106212800FFF7BFFF002F1AD03068D9
:103A60004B46009300230122012100F0A3F9C30774
:103A70000AD50D4B1B78534506D104220A4938005C
:103A800002F066FE012006E0013CE4B2002CD8D131
:103A9000002000E0012003B00CBC91469A46F0BD26
:103AA000E8230020FFFF0000302B002010B582B07B
:103AB0001A4C00230093E1235B0200220321200023
:103AC000FEF79AF90A210020FEF7A0F801220A2148
:103AD0000020FEF70FF809220A210020FEF726F841
:103AE000032208210020FEF721F803220B210020E9
:103AF000FEF71CF80423A375094AC2218900535814
:103B00001B021B0AC02000060343535080231B01E5
:103B100013600122034B1A7002B010BD000C00426A
:103B200000E100E0362B002010B5041C134901F021
:103B3000C9FD002807D11249201C01F0D7FD00283B
:103B400002D00F4C00E00D4C8A21C905201C02F068
:103B500019FA0C4902F04CF802F0AEFC03B20A4824
:103B600076220270573A42701A128270C3700A238A
:103B7000064A5621FFF75AFF10BDC04600002AC36F
:103B800000002A4300003443402B0020382B002043
:103B900070B505001048692303704A3B4370002349
:103BA0008370C3700A330D4A4921FFF73FFF041E9B
:103BB0000FD00A4B98780002DB78181800B202F098
:103BC0009DFC074902F0DEF9E821890502F0DAF9E7
:103BD0002860200070BDC046402B0020382B0020FC
:103BE0000000344310B503000C00FF2804D9E9217C
:103BF0000E4A1170A03902E0F8210C4A11700B48EE
:103C00001F224270DBB28370C3700A23084AFFF799
:103C10000DFF002809D0054B9A78DB789A4203D132
:103C2000034BDB78237000E0002010BD402B002008
:103C3000382B002070B504000D001B48FF230370D3
:103C4000E03B437022338370023BC370353B174A1D
:103C5000FF21FFF7EBFE002825D0144B9B780020B6
:103C6000412B20D1114BDB78452B1CD1FF2C04D9E3
:103C7000FA220D4B1A70FA2103E0F9220A4B1A704E
:103C8000F92109481F234370E4B28470C570153BC5
:103C9000064AFFF7CBFE002805D0034B9878001B9F
:103CA00043425841C0B270BD402B0020382B002049
:103CB00010B5032200210020FDF738FF0322012167
:103CC0000020FDF733FF01210320FFF7F5F910BDB8
:103CD00070B50378002B10D00200084E0325316820
:103CE000C918497829401C00022901D1203B1C0039
:103CF000147001321378002BF1D170BD0800002040
:103D000001207047FEE7C04610B51B4A1B4B9A4284
:103D100003D01A001A4B9A4204D31A4A1A4B9A42F9
:103D200010D31EE0194A164B03339B1A9B0801332C
:103D30009B000022114810498C58845004329A424A
:103D4000FAD1EAE7124A104B03339B1A9B0801335E
:103D50009B0000220B4800211418216004329A4273
:103D6000FAD10C4AFF210C4B8B43936002F0CAFC42
:103D7000FFF742F9FEE7C046CCDB00000000002060
:103D8000A8000020B00000204C2B002004000020E0
:103D9000B400002000ED00E00010000010B51C2071
:103DA00000F0FAF9041E03D0002308C000F0D8F890
:103DB000200010BDF0B54F4680B406000D0017007E
:103DC0009946002801D172B6FEE70B0E01D072B6FB
:103DD000FEE7002901D172B6FEE701F023F90028C1
:103DE00004D1069B002B01D072B6FEE700F050FE16
:103DF00034684B46002B04D123002B405A1E9341BC
:103E000004E023002B405B1B5A425341002B05D09A
:103E1000002F3CD02300AB43336038E0069B002BDF
:103E200035D039004B1E994109064B46002B02D074
:103E30008023DB0419432943301D069A00F0FCFF60
:103E400000F0C0FE002801D100F042F901F034F981
:103E50000400830118D400F047F934684B46002B66
:103E600004D123002B405A1E934104E023002B4031
:103E70005B1B5A425341002B04D0002F02D0230079
:103E8000AB43336000F03CF92402240A01E000F067
:103E900099FE200004BC9146F0BDC046F8B55F46CF
:103EA00056464D464446F0B404000D00002801D1AA
:103EB00072B6FEE70B0E01D072B6FEE706000C36B6
:103EC00000F0E6FD206923681D43256086422BD063
:103ED00000258023DB04994680235B0498468023D9
:103EE0009B049B4643689A4601680A02120A4B46A5
:103EF000194204D1236813405F1EBB4105E02368CB
:103F000013409B1A5F425F413B00002B08D04346A1
:103F1000194200D0154321685B46194301F004F8AB
:103F200050465645DED100E000252368AB432360B0
:103F300000F048FE20683CBC90469946A246AB463D
:103F4000F8BDC04610B5FFF7A9FF10BD10B51300AE
:103F50000A000100014801F003FB10BD453F0000CD
:103F6000030008334360012252428260C360036150
:103F7000002303607047C046002303617047C046BA
:103F800043684B609A688A609A68516099600861DA
:103F9000036801330360704730B50C6802000832D3
:103FA000631C02D1026904E01A0053681D68AC4228
:103FB000FAD253684B6099608A6051600861036867
:103FC0000133036030BDC046036942688168916077
:103FD0008268416851605A68904201D182685A6093
:103FE000002202611A68013A1A6018687047C046D8
:103FF00082B000230193064B1B68013301D072B6D7
:10400000FEE772B6019B002BFCD002B07047C046A1
:10401000040000200000000000000000000000007C
:104020000B4A13681868203080F30988022080F357
:104030001488BFF36F8F3FBCAE4608BC04BC62B6A9
:104040001847C046C046C046C046C046C046C046E7
:10405000D422002010B5031F802464041C60043B9C
:104060001960043B02491960143B1A60403810BDC6
:10407000F13F00007047C04610B50F4B1A68FF2192
:1040800009040A431A601A68FF2109060A431A60E4
:104090000A4A002313600A490B600A480A4908606B
:1040A00007211160094A1360FFF7BAFF00F012FE02
:1040B000FFF79EFF002010BD20ED00E010E000E0C3
:1040C00018E000E07FBB000014E000E004000020E6
:1040D00080225205034B1A60BFF34F8FBFF36F8FDF
:1040E0007047C04604ED00E072B6044A136801331D
:1040F0001360BFF34F8FBFF36F8F70470400002032
:10410000064B1B68002B01D172B6FEE7013B034A48
:104110001360002B00D162B67047C0460400002037
:10412000EFF3108072B6704780F310887047C04676
:10413000EFF309800E4B1A6820381060F0C0444637
:104140004D4656465F46F0C008B572B600F0C2FD57
:1041500062B60CBC116808681030F0C8A046A946C9
:10416000B246BB4680F309882038F0C81847C046DD
:10417000D422002010B5FFF7D3FF040000F096FC16
:10418000002803D080225205024B1A602000FFF75E
:10419000CBFF10BD04ED00E070B50400430702D072
:1041A00007239C43083400F073FC0F4B1B68002B63
:1041B00005D107220D4B083393430B4A13600C4B78
:1041C0001B68E4180B4A944207D8A34207D2064A58
:1041D0001568ED18064B1C6002E0002500E0002584
:1041E00000F0F0FC280070BD180200201C02002026
:1041F00014020020F71F0000002801D072B6FEE76D
:104200007047C04610B50400FFF76EFFA46BFFF7C0
:1042100077FF6042604110BD70B504001600856BE9
:10422000026C002A09D10020236883422BD16068E8
:1042300000F008FF0023636025E0002E0ED18068A7
:1042400002F086FAA368226C94466344A3600020BF
:104250006268934217D32368A36014E0C06802F039
:1042600077FA236C5B42E268D218E26021688A42E6
:1042700003D2626894466344E3600020022E02D1B8
:10428000854200D0013D0135A56370BD70B582B097
:1042900001900A00846C002C01D172B6FEE7A16B7C
:1042A000E36B994201D372B6FEE7A16B00268B4205
:1042B00018D94523E55C6DB201A92000FFF7ACFFDA
:1042C00006006B1C0AD1636A002B0BD0200024303F
:1042D00000F0EAFD002805D0012603E001356DB2AB
:1042E0004523E554300002B070BDC04610B50C0047
:1042F000026C002A0BD0C3689B18C36041688B42D4
:1043000001D30368C360C168200002F021FA10BD28
:1043100070B50500FFF7E8FE4523EC5C64B2002CA5
:104320001BDD2E002436AB6C002B08D000212800AA
:10433000FFF7ACFF00280CD000F06EFE09E06B6ABE
:10434000002B0AD0300000F0AFFD002801D000F0B3
:1043500063FE013C64B2002CE5D1FF224523EA5400
:10436000FFF7CEFEFFF7C0FE4423EC5C64B2002CE6
:1043700013DD2B692E001036002B03D10DE02B69C5
:10438000002B0AD0300000F08FFD002801D000F093
:1043900043FE013C64B2002CF1D1FF224423EA54D5
:1043A000FFF7AEFE70BDC04670B504000D000028DA
:1043B00001D172B6FEE7FFF797FE2268216CE36B2E
:1043C0004B43D01860600020A063A2605B1AD31832
:1043D000E360FF234422A3540132A354002D0BD1E8
:1043E0002369002B10D02000103000F05DFD002864
:1043F0000AD0FFF76DFE07E020001030FFF7B0FD98
:1044000020002430FFF7ACFDFFF77AFE012070BDDD
:10441000F8B506000D001700002801D172B6FEE7BE
:10442000080070435430FFF7B7FE041E10D0002D73
:1044300001D1206002E0030054330360E663256489
:1044400001212000FFF7B0FF5023E7540023A364AD
:104450002000F8BDF0B55F465646C0B485B00400F4
:10446000009101921D00002801D172B6FEE7009B69
:10447000002B04D1036C002B01D072B6FEE7022D95
:1044800004D1E36B012B01D072B6FEE700F0CAFD48
:10449000002804D1019B002B03D072B6FEE7002652
:1044A00000E000264427FFF71FFEA36BE26B934258
:1044B00001D3022D24D12A0000992000FFF7ACFE81
:1044C000A36C002B08D029002000FFF7DFFE002896
:1044D00012D0FFF7FDFD0FE0636A002B08D020002B
:1044E000243000F0E1FC002806D0FFF7F1FD03E0E6
:1044F000002801D0FFF7ECFDFFF702FE01204DE0A0
:10450000019B002B03D1FFF7FBFD002046E0002EAE
:1045100003D102A800F042FD0136FFF7F1FD00F0E3
:10452000B7FAFFF7E1FDE35D5BB2013301D1002390
:10453000E3554523E35C5BB2013302D100224523FE
:10454000E254FFF7DDFD01A902A800F033FD0028C9
:104550001ED1FFF7C9FDA36B9B46E36B9A46FFF79D
:10456000CFFDD3450ED120001030019900F052FC50
:104570002000FFF7CDFE00F025FB002893D1FFF7C8
:10458000A7FD90E72000FFF7C3FE00F01BFB8AE7C2
:104590002000FFF7BDFE00F015FB002005B00CBCAD
:1045A00092469B46F0BDC046F0B583B00400019131
:1045B00016001D00002801D172B6FEE7019B002BFA
:1045C00004D1036C002B01D072B6FEE7022D3BD163
:1045D000E36B012B33D072B6FEE74523E35C5FB299
:1045E0002A0001992000FFF717FE7B1C1DD1A36C48
:1045F000002B0BD029002000FFF748FE01250028E2
:104600002AD0002E17D00123336025E0636A0125EC
:10461000002B21D02000243000F046FC00281BD0C5
:10462000002E0AD00123336016E07B1C5BB24522CA
:10463000A354012510E001250EE001250CE0FFF751
:104640006FFD0090A36BC8E7FFF76AFD0090A36BB6
:10465000E26B9A42C1D800250098FFF765FD28005B
:1046600003B0F0BDF0B585B0041E0091019201D1F8
:1046700072B6FEE7009B002B04D1036C002B01D027
:1046800072B6FEE700F0CEFC002804D1019B002B9F
:1046900003D072B6FEE7002600E000264427FFF7AD
:1046A00023FDA56B002D14D000992000FFF71EFEFE
:1046B000013DA5632369002B07D02000103000F0D6
:1046C000F3FB002801D0FFF703FDFFF719FD0120E0
:1046D0004DE0019B002B03D1FFF712FD002046E0C7
:1046E000002E03D102A800F059FC0136FFF708FDA7
:1046F00000F0CEF9FFF7F8FCE35D5BB2013301D1C6
:104700000023E3554523E35C5BB2013302D1002271
:104710004523E254FFF7F4FC01A902A800F04AFC8B
:10472000002819D12000FFF76DFD00280ED02000D1
:104730002430019900F06EFB2000FFF7E9FD00F046
:1047400041FA0028ABD1FFF7C3FCA8E72000FFF730
:10475000DFFD00F037FAA2E72000FFF7D9FD00F0F7
:1047600031FA2000FFF74EFD002898D0002005B058
:10477000F0BDC04670B504000D001600FFF7B4FC94
:104780004423E35C5BB2013302D100224423E254B0
:104790004523E35C5BB2013302D100224523E2549E
:1047A000FFF7AEFCA36B002B05D1200024303200B4
:1047B000290000F061FB2000FFF7AAFD70BDC04694
:1047C000084B1B681B68002B04D101225242064B88
:1047D0001A6006E0034B1B68DB68DB685A68024B13
:1047E0001A60704720220020F422002010B5034CEC
:1047F0002368012BFCD9FFF76BFCF9E7442200206A
:1048000070B504000D00174B1E68174B1868043074
:10481000FFF7DAFB631C08D1002D06D0124B196894
:1048200004311248FFF7ACFB1AE034190E4B1B6839
:104830005C60A64207D90E4B18680B4B196804310F
:10484000FFF7AAFB0CE00B4B1868074B1968043103
:10485000FFF7A2FB084B1B689C4201D2064B1C6071
:1048600070BDC046F0220020D42200201423002076
:104870003C22002020220020F4220020F0B54746F0
:1048800080B482B000900F00019395002800FFF7DC
:1048900083FC041E00D1ABE05C20FFF77DFC061E0C
:1048A00013D004632A00A521200001F05AFF2A1F1B
:1048B000336B9C46624407239A4390463A782D33E3
:1048C000F2543B78002B04D111E02000FFF794FC58
:1048D0008EE0791C33003533300044300A781A708A
:1048E0000A78002A03D0013101338342F6D1002235
:1048F0004323F254089D062D00D90625F562F56480
:1049000000243465371D3800FFF736FB30001830BF
:10491000FFF732FB366107235B1BB3617662746578
:104920005823F454019A00994046FFF793FB3060F6
:10493000099B002B00D01E60FFF7D6FB2F4A13689F
:10494000013313602E4B1B68002B20D12C4B1E60B3
:104950001368012B27D12B4C25008C352000FFF745
:10496000FFFA1434A542F9D1274D2800FFF7F8FAD1
:10497000264C2000FFF7F4FA2548FFF7F1FA254806
:10498000FFF7EEFA244B1D60244B1C600BE0244B18
:104990001B68002B07D11A4B1B68DB6AF26A934233
:1049A00001D8174B1E601F4A1368013313607364EC
:1049B000F36A1D4A1268934201D91B4A136098009A
:1049C000C3189B000F48C0183900FFF7D9FAFFF74A
:1049D00097FB134B1B680120002B0BD0084B1B6867
:1049E000DA6AF36A9A4205D2FFF772FB012001E00E
:1049F0000120404202B004BC9046F0BDFC220020E1
:104A0000D42200204422002028220020002300205D
:104A1000D822002014230020202200203C22002045
:104A200024220020F82200202823002000B583B093
:104A3000114B019300230093402210491048FFF7C7
:104A40001DFF012811D100F017FC01280DD172B60D
:104A5000012252420B4B1A6002320B4B1A600022A9
:104A60000A4B1A60FFF708FB03E0431C01D172B642
:104A7000FEE703B000BDC046EC220020DCD60000FB
:104A8000ED470000F422002024220020F022002024
:104A9000024A1368013313607047C046D0220020D9
:104AA000014B18687047C046F0220020F0B583B073
:104AB000394B1B68002B61D1384B1A68561C1E609D
:104AC000002E12D1364B1B681B68002B01D072B62A
:104AD000FEE7334A1168334B186810601960324A98
:104AE000136801331360FFF76BFE304B1B68002720
:104AF0009E4237D300272A4D2B681B68002B04D118
:104B000001225242294B1A602CE0254B1B68DB68BE
:104B1000DC6863689E4202D2244A136022E0231DAF
:104B200001931800FFF750FAA36A002B03D020006E
:104B30001830FFF749FAE36A1D4A1268934201D917
:104B40001B4A13609800C3189B001A48C0180199AB
:104B5000FFF716FA184B1B68E26ADB6A9A42CBD35E
:104B60000127C9E7144B1B68DB6A9A00D3189B0026
:104B7000104A9B58012B06D9012704E00F4A1368FD
:104B80000133136000270E4B1B68002B00D0012758
:104B9000380003B0F0BDC046D0220020F022002033
:104BA000202200203C2200201C220020F422002091
:104BB0002823002044220020D4220020402200206C
:104BC0002C230020F8B52F4B1B68002B01D172B6A7
:104BD000FEE7FFF789FA2B4B1A68013A1A601B6847
:104BE0000024002B4AD1284B1B680026002B23D120
:104BF00044E0FB68DE6830001830FFF7E5F9341D4B
:104C00002000FFF7E1F9F36A204A1268934201D9C4
:104C10001E4A13609800C3189B001D48C01821004D
:104C2000FFF7AEF91B4B1B68DB6AF26A9A4205D3A9
:104C30000122194B1A6001E0184D2F002B68002B40
:104C4000D7D1002E01D0FFF7BBFD154B1C68002CFF
:104C50000CD0114E0125FFF729FF002800D0356048
:104C6000013C002CF7D100220D4B1A600A4B1B6847
:104C70000024002B02D0FFF72BFA0134FFF740FA93
:104C80002000F8BDD0220020FC2200202823002094
:104C900044220020D42200202C230020D8220020EF
:104CA0004022002010B5041E0FD0094B1B68002BBA
:104CB00001D072B6FEE7FFF7EBFE00212000FFF700
:104CC0009FFDFFF77FFF002801D1FFF701FA10BD1C
:104CD000D022002010B5214B1B68002B03D00122ED
:104CE0001F4B1A6038E000221D4B1A601D4B1B68D9
:104CF0009A00D21892001C495258002A0DD1002B5C
:104D000002D003E0002B01D172B6FEE7013B9A000E
:104D1000D21892005258002AF4D0134C9A00D1189D
:104D200089006118486840684860D21892000832CB
:104D3000A218904205D141689A00D2189200A21898
:104D400051609A00D218920007498A185268D168B7
:104D5000064A1160034A136010BDC046D0220020ED
:104D60002C2300202823002044220020D4220020CD
:104D700070B50400FFF7B8F9002C01D1204B1C6876
:104D8000251D2800FFF720F9A36A002B03D020007F
:104D90001830FFF719F929001A48FFF7F1F85823DE
:104DA000E35C012B02D100225733E254FFF7A8F94C
:104DB000154B1B68002B05D0FFF796F9FFF700FD98
:104DC000FFF79EF90E4B1B689C4218D10E4B1B68D7
:104DD000002B08D00D4B1B68002B01D072B6FEE7EC
:104DE000FFF776F90BE0074B1A68094B1B689A42EC
:104DF00003D10022024B1A6001E0FFF76BFF70BD88
:104E0000D42200201423002024220020D0220020BD
:104E1000FC22002010B50C00002801D172B6FEE77C
:104E2000044B19681831FFF7B7F801212000FFF78C
:104E3000E7FC10BDD422002070B51400002801D179
:104E400072B6FEE70A4B1B68002B01D172B6FEE773
:104E5000084B1A6880252D0629439161196818317D
:104E6000FFF78EF801212000FFF7CAFC70BDC04695
:104E7000D0220020D422002070B50C00150000289C
:104E800001D172B6FEE7074B19681831FFF778F8C1
:104E9000002D01D00124644229002000FFF7B0FC5E
:104EA00070BDC046D422002070B5C368DD68002DF7
:104EB00001D172B6FEE72C0018342000FFF784F809
:104EC000134B1B68002B13D12C1D2000FFF77CF81F
:104ED000EB6A104A1268934201D90E4A1360980097
:104EE000C3189B000C48C0182100FFF749F803E0E5
:104EF00021000A48FFF744F8094B1B68EA6ADB6A9D
:104F000000209A4203D90122064B1A60013070BD7D
:104F1000D02200202823002044220020D822002074
:104F2000D42200202C23002070B5174B1B68002BC7
:104F300001D172B6FEE780231B0619430160C568E4
:104F4000002D01D172B6FEE7FFF73EF82C1D2000C0
:104F5000FFF73AF8EB6A0D4A1268934201D90B4AFF
:104F600013609800C3189B000948C0182100FFF780
:104F700007F8084B1B68EA6ADB6A9A4202D90122E9
:104F8000054B1A6070BDC046D022002028230020A7
:104F900044220020D42200202C230020034B1B6835
:104FA0000360034B1B6843607047C0461C2200200F
:104FB000F022002070B506000D00002801D172B665
:104FC000FEE7002901D172B6FEE7FFF78DF8104B1E
:104FD0001A6871682B68581C15D00E480068346830
:104FE000844202D001248A420ED2521A9A4206D238
:104FF0009B1A2B603000FFF7D1FF002404E0002350
:105000002B60012400E00024FFF77AF8200070BD37
:10501000F02200201C2200200122014B1A60704760
:105020002C230020054B1B680120002B04D0044BCF
:1050300018684342584140007047C046242200206F
:10504000D022002070B5051E2CD0184B1B6898424A
:1050500001D072B6FEE7036D002B01D172B6FEE7F8
:10506000013B0365C26AC16C8A421DD00020002B3F
:105070001BD12C1D2000FEF7A7FFEB6CEB62072273
:10508000D21AAA610A4A1268934201D9084A1360E7
:105090009800C3189B000748C0182100FEF770FF56
:1050A000012002E0002000E0002070BDD42200209A
:1050B0002823002044220020044B1A6890691A68B3
:1050C0001B68D96A07235B1A93617047D4220020BA
:1050D00070B505000C00FFF707F8174B1B685B6DF8
:1050E000002B0BD1144B1A6801215823D154002CEA
:1050F00004D02000FFF784FBFEF7EAFFFFF700F87B
:10510000FEF7F2FF0C4B1B685C6D002C0AD0002DE3
:1051100004D0094B1B6800225A6503E0064B1B684C
:10512000621E5A65044B1A6800215823D154FEF7B9
:10513000E7FF200070BDC046D4220020F8B504006F
:105140000F00002801D172B6FEE7FEF7E9FF060066
:105150005823E25C0221E154636D01336365012A47
:105160002FD1A36A002B01D072B6FEE7174B1B6844
:10517000002B13D1251D2800FEF726FFE36A144AF1
:105180001268934201D9124A13609800C3189B0019
:105190001048C0182900FEF7F3FE04E02100183182
:1051A0000D48FEF7EDFE0D4B1B68E26ADB6A9A4282
:1051B00007D9002F02D001233B6002E00122084BF7
:1051C0001A603000FEF7B0FFF8BDC046D0220020C4
:1051D0002823002044220020D8220020D4220020AE
:1051E0002C23002010B54160006191420BD8D21AE7
:1051F000012483699A4211D2011D094B1868FEF7F8
:10520000CBFE00240AE09A4202D20124994205D240
:10521000011D044B1868FEF7BFFE0024200010BDDE
:10522000642300203023002070B5FEF75DFF0D4B96
:105230001B68002B12D10C4D2800FEF791FE0B4C81
:105240002000FEF78DFE0A4B1D600A4B1C600022F9
:1052500010210220FFF7DCF8024B1860FEF750FF28
:1052600070BDC04660230020342300204823002066
:10527000302300206423002000B583B0FFF7D4FF63
:10528000094B1B68002B0BD0084B019302230093A2
:105290000023402206490748FFF7F0FA002801D111
:1052A00072B6FEE703B000BD602300206823002033
:1052B0001CD70000C953000030B585B004001D00A4
:1052C000002801D172B6FEE7124B186800281ED0E4
:1052D000009101920294052913DCFFF7A3FE022836
:1052E00007D10C4B18680023089A6946FFF7B2F8FB
:1052F0000EE0084B1868002300226946FFF7AAF861
:1053000006E000232A006946FFF74EF900E000207E
:1053100005B030BD60230020F0B557464E464546E7
:10532000E0B484B08046FFF7BBFB8246234B1B688A
:10533000984236D225E0DB681D68DC68271D3800FE
:10534000FEF742FE2000636A9847E369012B1BD1F8
:10535000A369EB189D4209D263602461184B1B6856
:10536000039339001800FEF717FE0DE04B4600933B
:105370002A0049462000FFF79FFF002804D172B69B
:10538000FEE70F4E0023994633681A68002AD2D1EF
:105390000C4A0B49106808601360012342461360F1
:1053A00002E0002342461360044B52461A60504606
:1053B00004B01CBC90469946A246F0BD5C23002078
:1053C0003023002064230020F0B54F464646C0B489
:1053D0008DB05F4E5F4B98465F4F33681A68002A66
:1053E00000D1A4E0DB681C68FFF752FB08A8FFF7B8
:1053F00093FF0500089B002B36D10020AC4227D834
:10540000FFF7E0FB524B1B68DB68DB689946181D11
:10541000FEF7DAFD4B46DB69012B14D14B469B6945
:10542000E11823002A004846FFF7DCFE00280AD0D6
:1054300000230093220000214846FFF73DFF00288B
:1054400001D172B6FEE74B465B6A484698470DE0CD
:10545000611B02003868FFF78DF9FFF7B3FB0028E6
:1054600004D1FEF735FE01E0FFF7ACFB3A4C56E005
:10547000089B0393002B0CDA0B9B03930A9B04936A
:10548000099B0593039904989847089B0393002B65
:1054900045DB0A9D6B69002B02D0281DFEF794FDA9
:1054A00007A8FFF739FF089B0393092B37D89B0008
:1054B0002A4AD3589F46099B0393AB69039A9446A3
:1054C00063441900130002002800FFF78BFE002838
:1054D00025D028006B6A9847EB69012B1FD1099BE7
:1054E0000393A9698C4663441A00002300930021AA
:1054F0002800FFF7E1FE002811D172B6FEE70999F6
:10550000A961002901D172B6FEE74118030002002B
:105510002800FFF767FE02E02800FEF76DFE00227C
:1055200008A92068FFF79EF80028A1D155E7FFF7EA
:10553000AFFA08A8FFF7F0FE0500089B002B93D1F7
:1055400043461B681A6850425041002480E7C04619
:10555000302300206423002060230020F4D60000C4
:1055600010B584B01C0002235B42009301900291AD
:105570000392044B1868002322006946FFF714F8D1
:1055800004B010BD60230020002243088B4274D376
:1055900003098B425FD3030A8B4244D3030B8B4234
:1055A00028D3030C8B420DD3FF22090212BA030C3D
:1055B0008B4202D31212090265D0030B8B4219D31E
:1055C00000E0090AC30B8B4201D3CB03C01A52413E
:1055D000830B8B4201D38B03C01A5241430B8B4286
:1055E00001D34B03C01A5241030B8B4201D30B036F
:1055F000C01A5241C30A8B4201D3CB02C01A524196
:10560000830A8B4201D38B02C01A5241430A8B4258
:1056100001D34B02C01A5241030A8B4201D30B0241
:10562000C01A5241CDD2C3098B4201D3CB01C01A5B
:10563000524183098B4201D38B01C01A5241430965
:105640008B4201D34B01C01A524103098B4201D353
:105650000B01C01A5241C3088B4201D3CB00C01AC0
:10566000524183088B4201D38B00C01A5241430838
:105670008B4201D34B00C01A5241411A00D201465D
:10568000524110467047FFE701B5002000F006F8D0
:1056900002BDC0460029F7D076E770477047C04684
:1056A0008446081C6146FFE71FB500F027FC002870
:1056B00001D40021C8421FBD10B500F0B3FB404229
:1056C000013010BD10B500F019FC002801DB0020EE
:1056D00010BD012010BDC04610B500F00FFC002821
:1056E00001DD002010BD012010BDC04610B500F046
:1056F000C1FB002801DC002010BD012010BDC04608
:1057000010B500F0B7FB002801DA002010BD012021
:1057100010BDC046002B11D1002A0FD1002900D1A5
:10572000002802D00021C943081C07B4024802A186
:105730004018029003BDC04665FFFFFF03B46846F2
:1057400001B5029800F01EF8019B9E4602B00CBC09
:105750007047C0469E2110B5C905041CFFF7D0FF55
:10576000002803D1201C00F0A7FE10BD9E21201CA4
:10577000C90500F01BFD00F09FFE80231B069C4620
:105780006044F2E7F0B54D46564644465F46F0B4F5
:10579000924683B004000D0099468B422FD82CD03E
:1057A0004946504600F0A2FF29000600200000F004
:1057B0009DFF331A9846203B9B4600D574E0534624
:1057C0005A4693401F005346424693401E00AF4244
:1057D00029D826D05B46A41BBD41002B00DA79E016
:1057E000002200230092019301235A469340019323
:1057F000012342469340009319E08242D0D900220F
:105800000023009201930C9B002B01D01C605D6073
:105810000098019903B03CBC90469946A246AB461D
:10582000F0BDA342D6D90022002300920193434643
:10583000002BE8D0FB0772081A4346467B080EE0AF
:10584000AB4201D1A2420CD8A41A9D4101202419D7
:105850006D410021013E24184D41002E06D0AB427F
:10586000EED9013E24196D41002EF8D15B46009817
:10587000019900196941002B22DB2B005A46D340C5
:105880002A004446E2401C005B461500002B2CDB3E
:1058900026009E40330026004746BE403200801A54
:1058A000994100900191AEE7424620239B1A52464F
:1058B000DA40414613004A468A4017001F4382E7F8
:1058C000424620239B1A2A0046469A402300F34072
:1058D0001343D5E74246202300219B1A0022009162
:1058E00001920122DA40019282E7424620232600FB
:1058F0009B1ADE402F00B446974066463B00334378
:10590000C9E7C046F8B54A02430244004E00C50F3D
:10591000240E28009B09360EC90F92098D4259D0DA
:10592000A01B002800DC8DE0002E1AD1002A00D038
:1059300079E05A0704D00F221A40042A00D0043319
:105940005A0138D50134FF2C00D189E028009B0191
:105950005B0AE4B25B02E4055B0A2343C007184319
:10596000F8BDFF2CE5D08021C9040A431B2800DDC7
:1059700089E016002021C640081A8240511E8A4143
:1059800032439B1A5A0114D59B019E09300000F046
:105990008FFE05388640844265DC041B33002020DE
:1059A0000134E340041BA640721E96410024334399
:1059B000BFE75A07BFD1DF082800FF2C2FD1002FE7
:1059C00000D187E08022D20313003B435B025B0AD5
:1059D000FF24BFE7A11B002949DD002E29D0FF2CA1
:1059E000A7D08026F60432431B2900DD8DE0170086
:1059F0002026CF40711A8A40511E8A413A439B1893
:105A00005A01D6D50134FF2C64D0012276491A40C0
:105A10005B080B4013438CE7031ECAD100207B02B6
:105A20005B0AE4B296E701380028AAD0FF2C9DD18A
:105A30007FE7002A00D17CE701390029DFD0FF2C65
:105A4000D2D176E7002820D1601CC0B2012853DDF6
:105A500080279E1AFF0437402FD0D61A0D0095E7F5
:105A60002800002376E7614B241A334061E70029C0
:105A70004DD1611CCEB2012E2FDDFF292AD09B18FB
:105A80005B080C0055E701227BE7002C1BD1002BA3
:105A90005BD0C04300280CD0FF2E7ED01B2800DD39
:105AA00092E01D002024C540201A8340581E8341E7
:105AB0002B43D31A34000D0064E7002E00D065E7B5
:105AC00000200024ABE7FF2E67D08024E40440428E
:105AD0002343E3E7FF2400233CE7002C61D1002BA4
:105AE0007ED0002A00D124E79B185A0100D460E739
:105AF0003E4A0C0013401CE7002C1ED1002B2FD176
:105B0000002A66D013000D0013E7012277E7002C6E
:105B10001FD1002B5AD0C94300290BD0FF2E50D0E3
:105B20001B295FDC1F002024CF40611A8B40591EC7
:105B30008B413B439B18340062E7002B1CD1002AA9
:105B40004AD013000D00FF24F3E6130034000D00CB
:105B5000EFE6FF2E35D08024E40449422343DFE7FB
:105B6000002A00D1E5E68027981AFF04074000D1FB
:105B700052E7D31A0D00DCE6FF24002A00D1D8E654
:105B80008020DB08C003034204D0D208024201D1C6
:105B900013000D00DB00FF24CBE61300FF240D00F3
:105BA000C7E6002B0DD0FF24002A00D1C1E68021DA
:105BB000DB08C9030B42EDD0D2080A42EAD1130038
:105BC000E8E71300FF24B4E6012372E71300340072
:105BD000AFE60027002022E780270020FF03F1E640
:105BE0001300A6E60123A5E7FFFFFF7DFFFFFFFBF4
:105BF000F0B5564644465F464D46F0B44402460072
:105C0000C70F83B08846650A360EBA463DD0FF2ED0
:105C100022D00023EC00802599469B46ED042543C5
:105C20007F3E43465C025800DB0F640A000E984634
:105C300036D0FF2830D080230021E400DB041C4351
:105C40007F38301A0190484642460843724E800021
:105C500030587A4013008746002D44D108239946D6
:105C6000063B9B46DDE70122FF2000241A40640228
:105C7000C305640AD2071C431443200003B03CBC94
:105C800090469946A246AB46F0BD002D20D1042394
:105C90009946033B9B46C4E7002C17D1022102E042
:105CA000002C0AD10121321A01924A4643460A4386
:105CB0005A48920082587B409746200000F0F8FC3A
:105CC000431F76309C4040420021BAE70321B8E7E9
:105CD000280000F0EDFC431F9D4000237630464233
:105CE00099469B469DE70C239946093B9B4698E7BE
:105CF00080240022E403FF20B9E70024C2468B463B
:105D00005A465346022AAED0032A7DD0012A31D109
:105D1000012200201A400024A9E70122101A1B28A2
:105D200056DD1A4000200024A1E78023DB031D423A
:105D30004BD18023DB032B435C02640A3A00FF2033
:105D400095E76D016001854230D2019A0024013A45
:105D500001921B220127290064006D00002901DB4C
:105D6000A84201D82D1A3C43013A002AF3D16A1EF9
:105D700095412C4301987F300028CEDD620704D086
:105D80000F222240042A00D00434220103D5244AE1
:105D9000019814408030FE2800DD64E70122A40150
:105DA000640AC0B21A4062E72C00A9E72D1A1A2231
:105DB0000124CFE76B02BCD500248023DB031C4306
:105DC0006402640A4246FF2051E71C42B3D1F4E763
:105DD00021002022C140101A8440621E94410C43CD
:105DE000620704D00F222240042A00D0043462014A
:105DF00004D5012201201A40002438E70122A40121
:105E0000640A1A40002032E78023DB031C4364024B
:105E1000640A5246FF202AE724D7000064D7000016
:105E2000FFFFFFF7430270B542004C005D0AC30F4D
:105E30004802120E460A240EC90FFF2A0FD0FF2C6B
:105E400011D00120A24200D070BDB542FCD18B42DE
:105E50000DD0002AF8D12800431E9841F4E7012014
:105E6000002DF1D1EBE70120002EEDD1E9E7002074
:105E7000EAE7C0464302F0B542005D0AC30F48029C
:105E8000440A4800120E000EC90FFF2A1FD0FF2837
:105E900022D0002A09D16E426E4100280FD1002C79
:105EA0000DD10020002D09D005E0002801D1002CE3
:105EB00001D08B4213D0584201231843F0BD002E6D
:105EC000F7D048424141012049420843F6E7002DFE
:105ED000DDD002204042F1E7002CDAD0F9E782421F
:105EE000E9DC04DBA542E6D80020A542E6D2584210
:105EF000434101205B421843E0E7C0464302F0B54E
:105F000042004C005E0AC30F4802120E450A240EDE
:105F1000C90FFF2A17D0FF2C19D0002A0BD17042CD
:105F20007041002C17D0002807D048424141012081
:105F300049420843F0BD002C13D08B4214D0584284
:105F400001231843F6E70220002EF3D1E3E70220F5
:105F5000002DEFD1E1E7002DE5D10020002EE9D0A2
:105F6000EDE7002DE9D1EAE7A242E8DC04DBAE422E
:105F7000E5D80020AE42DDD25842434101205B42C9
:105F80001843D7E7F0B557464E4645464300E0B4C0
:105F900046028846760A1F0EC40F002F47D0FF2FF7
:105FA00025D0002380259A469946F600ED042E431D
:105FB0007F3F434642465D02D20F5B006D0A1B0ED7
:105FC000904640D0FF2B39D080220020ED00D20433
:105FD00015437F3BFB1842465746591C62408C468E
:105FE00007430F2F5CD86F49BF00C9598F46002E59
:105FF00045D108239A46063B9946DAE742460228ED
:106000002DD0032800D1C3E0012800D0A2E0002554
:1060100000260240D4B27602ED05760A2E43E4074C
:10602000264330001CBC90469946A246F0BD002E87
:106030001AD104239A46033B9946BAE72A00511E17
:106040008A41901CC6E70120002DC3D0280000F033
:106050002FFB431F76309D4043420020BAE70124C6
:10606000FF2514400026D6E7300000F021FB431F37
:106070009E400023763047429A46994699E70C2382
:106080009A46093B994694E780260024F603FF25AB
:10609000C1E735004846B2E7350022004846AEE782
:1060A0002904090C0800370C3604360C2C0C7943F3
:1060B000704367437443060C64183619B14203D920
:1060C00080214902884647440004000C3104091825
:1060D0008D01681E8541890E2943350CED19AD01EE
:1060E0000D43290104D5012369081D4063460D4372
:1060F00019007F31002925DD680704D00F202840D2
:10610000042800D00435280103D5274980330D40E9
:106110001900FE29A3DC0124AD016E0A1440CDB2A2
:1061200079E78020C003064207D0054205D1284305
:106130004602760A4446FF256DE706437602760A54
:10614000FF2568E70124611A1B2905DD144000259D
:10615000002660E76346CBE72E002023CE40591A85
:106160008D406B1E9D412E43730704D00F23334097
:10617000042B00D00436730104D5012401251440FA
:10618000002648E70124B601760A1440002542E7BC
:1061900080260124F6032E437602760A1440FF255A
:1061A00039E7C046A4D70000FFFFFFF7F8B54A0261
:1061B0004E0043024400240EC50F9B09360EC90F42
:1061C0009209FF2E00D183E001204140A01BA9428B
:1061D0005CD0002800DC95E0002E1CD1002A00D005
:1061E00081E05A0704D00F221A40042A00D0043359
:1061F0005A013BD50134FF2C00D191E001209B01D5
:106200005B0AE4B205405B02E4055B0AED07234349
:106210002B431800F8BDFF2CE3D08021C9040A43AA
:106220001B2800DD90E016002021C640081A82409D
:10623000511E8A4132439B1A5A0115D59B019E0972
:10624000300000F035FA0538864084426CDC041BCF
:10625000330020200134E340041BA640721E964107
:1062600000243343BDE70D005A07BCD1DF080123EA
:106270001D40FF2C33D1002F00D190E08022D203AB
:1062800013003B435B025B0AFF24BCE700284FDDA1
:10629000002E2ED0FF2CA4D08025ED042A431B28ED
:1062A00000DD97E016002025C640281A8240501EC7
:1062B000824132439B185A01D5D50134FF2C6DD051
:1062C00001227B481A405B08034013430D0088E716
:1062D000002A00D07AE777E7031EC5D100257B02AC
:1062E0005B0AE4B28FE701380028A4D0FF2C97D1D5
:1062F00077E7002A00D174E701380028DAD0FF2CB4
:10630000CDD16EE7002821D1601CC0B2012858DD34
:1063100080279E1AFF0437402FD0D61A0D008FE732
:1063200001231D4000236EE7624B241A334058E7D7
:10633000002851D1601CC6B2012E33DDFF282DD0BC
:106340009B185B0804004CE7012274E7002C1AD06C
:10635000FF2E1FD08024E404404223431B2800DD8D
:1063600096E01D002024C540201A8340581E83411A
:106370002B43D31A34000D005EE7002E00D05FE7F8
:1063800000250024ABE7002B44D0C0430028F0D008
:10639000FF2EE3D11300FF240D0022E70D00FF24A0
:1063A000002330E7002C5DD1002B7DD0002A00D1E6
:1063B00017E79B185A0100D456E73E4A04001340E1
:1063C0000FE7002C1ED1002B2FD1002A65D013001F
:1063D0000D0006E701226DE7002C1FD1002B59D0DC
:1063E000C04300280BD0FF2E4FD01B285EDC1D00C1
:1063F0002024C540201A8340581E83412B439B18FC
:10640000340058E7002B1CD1002A49D013000D009E
:10641000FF24E6E6130034000D00E2E6FF2E34D040
:106420008024E40440422343DFE7002A00D1D8E679
:106430008027981AFF04074000D14DE7D31A0D00BA
:10644000CFE6FF24002A00D1CBE68020DB08C00382
:10645000034204D0D208024201D113000D00DB0038
:10646000FF24BEE6002B10D0FF24002A00D1B8E69E
:106470008020DB08C003034203D0D208024200D1CF
:106480001300DB000D00FF24ABE61300FF24A8E699
:1064900001236EE713003400A3E6002700251EE762
:1064A00080270025FF03E9E613009AE60123A6E70B
:1064B000FFFFFF7DFFFFFFFB4302590A4300C20FAE
:1064C0001B0E00207E2B0EDD9D2B0DDC802000049A
:1064D0000143952B0BDC9620C31AD9400B00584280
:1064E000002A00D118007047034BD018FBE7963BF9
:1064F00099400B00F3E7C046FFFFFF7F70B500280F
:1065000030D0C317C5185D40C40F280000F0D0F884
:106510009E231B1A962B0DDC9622D21A95406A02F6
:10652000520AD8B25202C005520AE407024322437B
:10653000100070BD992B19DC9922D21A9540124A8D
:106540002A40690704D00F210D40042D00D00432E9
:10655000510103D50C4B1A409F231B1A9201520A7A
:10656000D8B2DFE7002400200022DBE705222E005E
:10657000121AB921D6402A00C91A8A40551EAA41CA
:1065800035001543DBE7C046FFFFFFFB70B5041E77
:1065900028D000F08DF89E231B1A962B0ADC962239
:1065A000D21A94406202520AD8B25202520AC0056C
:1065B000104370BD992B18DC9922D21A9440114ACD
:1065C0002240610704D00F210C40042C00D004327B
:1065D000510103D50B4B1A409F231B1A9201520AFB
:1065E000D8B2E2E700200022DFE705222500121AD8
:1065F000B921D5402200C91A8A40541EA2412C005C
:106600001443DCE7FFFFFFFB4200120E511C430264
:10661000C9B270B55D0AC40F012915DDE0218900FA
:106620008C466D071B0B6244002128000D0D2D05C3
:106630002B431C4D52052B40520813435B00E407CB
:106640005B082343190070BD002A15D1002D1FD00F
:10665000280000F02DF80A281DDC0B232A001B1A45
:10666000DA4013000200153295400F4A1B03121A3C
:1066700052051B0B520DD7E7002D06D080221B0BB5
:10668000120313436D07094ACEE7084A0023CBE7FC
:1066900000220023C8E703000B3B9D402B00002590
:1066A000E3E7C046FFFF0F8089030000FF070000FB
:1066B0001C2101231B04984201D3000C10391B0A32
:1066C000984201D3000A08391B09984201D30009F6
:1066D000043902A2105C40187047C046040302024D
:1066E00001010101000000000000000010B50029B8
:1066F00003D1FFF7DDFF203002E0081CFFF7D8FFD1
:1067000010BDC0460E4B70B500251E000D4CE41A9E
:10671000A410A54204D0AB00F35898470135F8E720
:1067200007F040FA084B00251E00084CE41AA4109C
:10673000A54204D0AB00F35898470135F8E770BD87
:10674000B0DB0000B0DB0000B0DB0000B4DB000019
:10675000002310B59A4203D0CC5CC4540133F9E74E
:1067600010BD03008218934202D019700133FAE77A
:106770007047F0B58BB014001D1E129906DA802404
:1067800024061B191D0014002D2300E000230B70AC
:106790002023149E03229E43462E07D03300453B00
:1067A00059424B411099013ACB18109309AB04930D
:1067B00008AB0393139B00920293109B220001935A
:1067C0002B0001F023FE0700472E02D1119BDB07AF
:1067D0002DD5109BFB180793462E14D13B78302BF8
:1067E0000CD1002200232000290004F0BFFA002869
:1067F00004D10123109A9B1A139A1360139B079AD2
:106800001B68D3180793002200232000290004F0FE
:10681000ADFA3022002802D0079B099307E0099BBC
:106820000799994203D9591C09911A70F7E7380062
:10683000099B159ADB1B13600BB0F0BDF7B52B233A
:1068400007000C000270861C002901DA2D234C423F
:106850007B70092C1CDD6B46DD1D20000A2104F035
:1068600071FA013D3031297020000A2104F084F9C9
:1068700004000928F1DC013D30342C706B460733ED
:106880003000AB4209D92B78013533700136F5E77A
:106890003023E4183370B01C7470C01BFEBD0000C0
:1068A000F0B595B00C000A920B931A9D099002F076
:1068B000A3FE036818000D9300F02FFE002312932F
:1068C00023680E900C930C99277E2B680722C9052C
:1068D00001D59B1800E0073393431A0008322A6061
:1068E0001A685B68A264E3640122E56CA66C6B0025
:1068F0005B080F935242C04B30000F9905F0A0FF88
:10690000002819D10122BC4B524230000F9904F0EB
:106910003DFA002810D1002200233000290004F0A5
:106920002BFA002803D023002D2243331A70B34DD5
:10693000472F0ED8B24D0CE032002B00300029005A
:1069400005F07EFF002800D19AE1AE4D472F00D818
:10695000AD4D03230C9A236101339A432260002634
:1069600042E0672F00D193E1472F00D190E10C9ACC
:106970000021134312AA059211AA03922322236035
:106980000691019308A9636852180292009332009D
:106990002B0004970998FFF7ECFE20233A0005002E
:1069A0009A43472A00D18EE11199652F00D996E1CB
:1069B000200001393A0050301191FFF73FFF129A41
:1069C000060083182361012A00DD85E12268D207D1
:1069D00000D581E1232308AA9B181B78002B03D044
:1069E00023002D2243331A700B9B13AA009321001E
:1069F0000A9B099800F0A4F9431C02D101204042EF
:106A00009BE12268530501D4236964E0652F00D817
:106A1000CCE0A06CE16C0022002304F0A7F9002870
:106A20002CD00123794A0A9909980B9DA847431C49
:106A3000E4D0119B129A934208DB2368DB0705D44C
:106A4000236800259B0700D50FE113E10B9D0E9BEA
:106A50000D9A0A990998A8470025431CCED0129B8D
:106A6000013B9D42ECDA220001231A320A9909986F
:106A70000B9EB047431CC1D00135F0E7119B002BA2
:106A80002BDC0123614A0A9909980B9EB047431CED
:106A9000B4D0119B002B05D1129B002B02D123688F
:106AA000DB07CDD50B9E0E9B0D9A0A990998B0472E
:106AB0000026431CA2D0119B5B429E420ADA2200B0
:106AC00001231A320A9909980B9FB847431C95D0A5
:106AD0000136F0E7129B2A00ACE0A36D129E9E42A5
